:020000040800F2
:10000000D8070020510300081D4C00086138000883
:10001000194C0008DD140008195900080000000000
:10002000000000000000000000000000F95300087C
:10003000E1140008000000001D50000851540008A1
:100040006B0300086B0300086B0300086B030008D8
:100050006B0300086B0300086B0300086B030008C8
:100060006B0300086B0300086B0300086B030008B8
:100070006B0300086B0300086B0300086B030008A8
:100080006B030008000000006B0300086B0300080E
:100090006B0300086B0300086B0300086B03000888
:1000A0006B0300086B0300086B0300086B03000878
:1000B000E5540008F55400086B0300086B030008C2
:1000C0006B0300086B0300086B0300086B03000858
:1000D0006B0300086B0300086B0300086B03000848
:1000E0006B0300086B0300086B0300086B03000838
:1000F0006B0300086B0300086B030008000000009E
:10010000000000006B030008000000006B03000803
:100110006B03000800000000055500086B03000891
:100120006B0300086B0300086B0300086B030008F7
:100130006B03000800000000000000006B030008D3
:100140006B0300086B0300080000000000000000C3
:10015000000000000000000000000000000000009F
:100160000000000000000000000000006B03000819
:100170006B03000800000000000000000000000009
:10018000000000006B0300080000000000000000F9
:10019000000000000000000000000000000000005F
:1001A00000000000000000006B0300086B03000863
:1001B0006B0300086B0300086B03000800000000DD
:1001C000000000006B0300080000000000000000B9
:1001D0006B0300086B03000800F002F800F0A8F8B9
:1001E00014A696E8000CB244B344DA4501D100F0FD
:1001F0009FF8BAE80F000FA696E83000A5EB0405BB
:1002000004EB0607AAEB0704A7F101074FEA15154F
:100210004FEA3414A4F10104AC4201D300F088F891
:1002200013F0010F18BFFB1A43F0010300F001F8AF
:10023000DBE718475875000078750000103A24BFB6
:1002400078C878C1FAD8520724BF30C830C144BF3B
:1002500004680C6070470000704700000023002411
:1002600000250026103A28BF78C1FBD8520728BFC6
:1002700030C148BF0B6070476E2900F0678170295C
:1002800000F0A982662906F08380652906F0808047
:10029000672906F07D80612906F07C8003681B0ACF
:1002A00028BF41F08001692900F01481642900F021
:1002B0001181752900F00E816F2900F037827829AD
:1002C00000F07582E92900F0D181E42900F0CE81A7
:1002D000F52900F0CB81EF2900F03482F82900F0F5
:1002E00074820368DB0928BF41F08001632900F0B4
:1002F0007587732900F07A87E32900F08587F32951
:1003000000F08A87002070471FB506F034F800F02F
:10031000D9FF04000020002105F0A0FF401C606010
:100320000020002105F084FFE0601FBD10B510BD66
:1003300000F09AFF1146FFF7E7FF05F04FFB01F0D1
:1003400077F803B4FFF7F2FF03BC01F0BFF8000039
:100350000948804709480047FEE7FEE7FEE7FEE759
:10036000FEE7FEE7FEE7FEE7FEE7FEE70448054995
:10037000054A064B70470000D1540008D901000817
:10038000D8010020D8070020D8030020D80300207F
:100390000FB41CB5084B06AA7B446946009005982B
:1003A00000F0EDF804460020694600F0FBF8204616
:1003B0001CBC5DF814FB0000090200004FF00002B5
:1003C00000B5134694469646203922BFA0E80C504B
:1003D000A0E80C50B1F12001BFF4F7AF090728BF26
:1003E000A0E80C5048BF0CC05DF804EB890028BFA2
:1003F00040F8042B08BF704748BF20F8022B11F0CB
:10040000804F18BF00F8012B704770477047704746
:1004100070B5044685690068C10601D5302600E044
:100420002026C00707D070BDD4E90121304690478F
:10043000206A401C20626D1EF6D570BD70B5044662
:1004400085690078C00707D170BDD4E9012120205B
:100450009047206A401C20626D1EF6D570BD096869
:100460004A0501D540B27047C905FCD500B27047B6
:1004700009684A0501D5C0B27047C905FCD580B2EC
:10048000704770B50C460546012A05D028788006CD
:1004900000D5EA69002302E0012305E05B1C9342DA
:1004A00002D2E05C0028F9D1A869E618C01AA86158
:1004B000286A184428622846FFF7AAFF04E0D5E915
:1004C000012114F8010B9047B442F8D32846FFF7F6
:1004D000B5FF70BD2DE9F04106460024106875296E
:1004E000314616A510D0FFF7BAFF002802DA4042C5
:1004F00013A507E031688A0701D512A502E0490774
:1005000004D511A5012401E0FFF7B2FF00210A2262
:1005100006F1240709E0B0FBF2FCB0FBF2F302FBAA
:100520001C00303078541846491C0028F3D123466B
:100530002A463046BDE8F04100F061BA00000000F4
:100540002D0000002B000000200000001168026850
:10055000006A530501D508700AE0D30501D508806B
:1005600006E0130603D5C217C1E9000200E00860E7
:100570000120704701694A1C02610878704700B584
:100580008FB0CDE901310021059105497944CDE9CC
:1005900003101146684600F029F90FB000BD0000B5
:1005A000E5FFFFFF0A6802F8010B0A6070470000D0
:1005B0002DE9FF5F15468A460446DFF8AC80F84413
:1005C0000027D8E900103E46CDE9001010E03AF8C7
:1005D00016106A4602A800F023FE411C07D02178BD
:1005E000890603D5E269391891420DD80744761C73
:1005F0002078800602D5E069B84205DDAE42E6DB30
:100600003AF816000028E2D1A069C01BA06120467C
:10061000FFF7FEFED8E90010CDE90010002017E03A
:100620003AF818106A4602A800F0FAFDB0F1FF3F50
:1006300081460BD000250DF1080B05E0D4E901211E
:100640001BF8050090476D1C4D45F7D308F10100DC
:10065000B0428046E4DB206A384420622046FFF73F
:10066000EDFEBDE8FF9F0000D65D00002DE9F041E2
:100670008046D21D22F007020025D2E90002F529AA
:1006800015A614D0011E72F1000106DA0023D0EB8A
:10069000030063EB020211A608E0D8F800108B07F4
:1006A00001D50FA602E0490701D50EA60125114686
:1006B000002408F1240704E000F05CF930323A55D8
:1006C000641C50EA0102F7D12B46324621464046CF
:1006D000BDE8F04100F093B9000000002D000000DB
:1006E0002B0000002000000030B4002100F12404A1
:1006F00008E002F00705D208303542EA4372DB0811
:100700006554491C52EA0305F3D10468002310A282
:10071000250708D504F020040C4304D0C469012344
:100720000CA2641EC46130BC00F069B910B5044667
:1007300021461068FFF79CFE02462046BDE81040A7
:100740000023D1E7D21D22F00701D1E90023CBE736
:100750000000000030000000F0B40D4601880905DB
:1007600002D5214C7C4402E01F4C7C440E34002115
:1007700000F1240608E002F00F071209E75D42EAE3
:1007800003721B097754491C52EA0307F3D102781C
:100790000023120704D5702D06D009B102231134AD
:1007A0002246F0BC00F02BB901231034F8E770B5F5
:1007B00004460D4621461068FFF75AFE02462946B8
:1007C0002046BDE870400023C6E7D21D22F0070393
:1007D000D3E90023C0E70368126843F020030360F5
:1007E0000823C3610023B7E7385C00002DE9F05F00
:1007F000894604464FF0000ADFF874B1FB44C0F8A4
:1008000020A02046E1688847002874D0252806D01B
:10081000D4E901219047206A401C2062F1E70026BC
:100820005F462046E16888472028054607DB312DD2
:1008300005D2781910F8200C08B10643F1E7B0078B
:1008400001D526F00406C4F81CA00027C4F818A09F
:100850002A2D09D0284605F0E3FC38B304EB8708BD
:10086000303DC8F8185019E059F8041B204604EB35
:1008700087029161E1688847012F054618D1E06938
:10088000002820DA26F020061DE0D8F8180000EB3A
:10089000800005EB40003038C8F818002046E168B9
:1008A0008847054605F0BCFC0028EED1012F0AD090
:1008B0002E2D08D12046E16888477F1C0546022F6F
:1008C00046F02006C4DBA069002803DA404246F067
:1008D0000106A061F00701D026F010066C2D0BD0A8
:1008E000682D09D04C2D39D06A2D35D0742D35D0D6
:1008F0007A2D33D016E038E0E1682F46204688474D
:10090000B842054609D16C2F26D04FF48060E168CB
:10091000064320468847054604E06C2F1AD04FF462
:10092000807006430DB3A5F14100192802D8203587
:1009300046F400664A462946204626604E46FFF7A2
:100940009BFC80B101280BD0F61D26F0070000F1BA
:10095000080956E74020E4E78020D8E70020D6E7E2
:1009600006F104094DE7284652E7206ABDE8F09FEA
:10097000C85B000030B5B0F10A0271F100034FEA24
:10098000900E4EEA817EB0EB0E0061EB91014FEAD2
:10099000101E4EEA017E10EB0E0041EB11114FEAE2
:1009A000102E4EEA016E10EB0E0041EB11214FEAC2
:1009B000104E4EEA014E10EB0E0041EB1141401873
:1009C00041F100014FEAD00040EA41704FEAD10105
:1009D0004FEA810444EA907410EB800544EB010473
:1009E0006D1944EB0404521BA3414FF0000348BFB0
:1009F0000A3200D530BD401C41F1000130BD2DE967
:100A0000F0470D4699469246044600F124080168D5
:100A1000880604D5E06921F01001216000E0012082
:100A2000A84201DD471B00E00027A1697A1902EB0B
:100A30000900081AA0612078C00602D42046FFF7FA
:100A4000E7FC002608E0D4E901211AF806009047E7
:100A5000206A401C761C20624E45F4DB2078C006DC
:100A60000AD52046FFF7D4FC06E0D4E90121302066
:100A70009047206A401C2062381EA7F10107F4DC71
:100A800007E0D4E9012118F805009047206A401CCE
:100A90002062281EA5F10105F3DC2046FFF7CEFCFD
:100AA0002078000602D50220BDE8F0870120FBE790
:100AB0002DE9FF4F0C461E464FF0FF378BB0D2E9B1
:100AC0000001DDF860800A908A46C1F30A5505B935
:100AD0003D46002108464FF00000BAF1000F00F437
:100AE000400005DA00EB80004FF4400101EA5000BD
:100AF0004FEA9059B9F1010F00DDB9460A9850EA62
:100B00004A000ED044F61050A5F2FF3545432F148D
:100B1000B8F1000F1ED07542291E1EDDC9F100027A
:100B20001CE0B8F1010F4FF0000001D0302103E0CC
:100B3000F24305E02154401CB042FBDB304600226A
:100B4000002121540B99C1F80880C1E900200FB0A1
:100B5000BDE8F08FBD1B6D1CDEE74A4600DA694236
:100B600006A800F0F3FB06AB93E8070003AB83E8AD
:100B7000070050460A9904F073FF8DE80700A0F5BE
:100B800000501F3800900398002D0ADD42F21F012B
:100B90004A460844002303A90390684605F0DCF99F
:100BA00009E0A0F500504A461F38002303A903902E
:100BB000684605F0E6F98DE807000004000C03D054
:100BC0004FF0FF30410800E01046B8F1000F03D0AD
:100BD0000022009215461EE0751E05D4FFF7CAFEDE
:100BE000303262556D1EF9D5B3460122084302D05A
:100BF00000227F1C04E02078302801D100227F1ED3
:100C0000002A099784D01DE0112D07DAFFF7B2FE04
:100C1000303262556D1C50EA0102F5D1084302D012
:100C20000098C8B10EE00021681E05E0235C625CFC
:100C300063542254401E491C8142F7DBAB46A81B7B
:100C4000401E0990002004F80B000B98099AC0F888
:100C50000880C0E9002B7AE711264FF0000857E71B
:100C60002DE9F04F88460446D21D22F0070191B0CD
:100C7000D1E90001CDE90A0105F0BAFA02460B9864
:100C8000C00F01D02D2007E02068810701D52B205F
:100C900002E0202101EAC000032A099001D0072ABE
:100CA00005DB03464146204600F010FB0BE12078AF
:100CB000800601D5E06900E00620B8F1650F8146A5
:100CC00006D0B8F1660F18D0B8F1670F70D131E0D7
:100CD0000020B9F1110F009001DB112301E009F1AF
:100CE00001030AAA01A90CA8FFF7E2FEDDE90C70D6
:100CF000002609F10105834647E001204B4600909C
:100D00004FF000470AAA01A90CA8FFF7D1FEDDE9C0
:100D10000DB00C995D46002610B909F101000D18BF
:100D2000B9EB050003D4C0F1FF3609F10105A5EBCD
:100D300009002BE0B9F1010F01DA4FF001090020A1
:100D4000B9F1110F0090484601DD112300E0034680
:100D50000AAA01A90CA8FFF7ABFEDDE90C704D460D
:100D600000268346207800070AD4AB4500DA5D46AA
:100D700001A8012D04DD411911F8011C302907D00B
:100D80004F4502DA17F1040F04DA012082460FE022
:100D90006D1EEEE7002F02DCED1B3E4403E0781CE5
:100DA000A84200DD7D1CB81B00F1010A4FF000478E
:100DB0002078000703D4AA4501DB4FF0FF3A002159
:100DC000B7F1004F0DF143088DF8431024D00220F5
:100DD0002B23002F01DA7F422D230A21021EA0F1CE
:100DE000010000DC5FB197FBF1FC97FBF1F201FB26
:100DF0001C7C17460CF1300C08F801CDEEE7A8F189
:100E0000010003702188090501D5452100E0652115
:100E1000A0F1010800F8011C09980FA9A1EB08072F
:100E2000FF1D00B10120411901EBEA70A1693844AE
:100E3000081A401EA0612078C00602D42046FFF7A1
:100E4000E7FA099828B1D4E901219047206A401CAB
:100E500020622078C00622D52046FFF7D9FA1EE08E
:100E6000002E04DBB34502DD01A8805D00E03020E8
:100E7000D4E901219047206A401C2062761CAAF127
:100E800001005FEA000A0AD100F01CFAC06801689C
:100E9000405CD4E901219047206A401C2062281E52
:100EA000A5F10105DCDC07E0D4E9012118F8010B0C
:100EB0009047206A401C2062381EA7F10107F3DC2E
:100EC0002046FFF7BBFA032011B041E62DE9F04FB1
:100ED00004460D46D21D22F0070089B0D0E90097E4
:100EE0004846394605F084F90246F80F01D02D2313
:100EF00007E02068810701D52B2302E0202101EAC9
:100F0000C0038DF820300BB1012000E00020032A3F
:100F1000824601D0072A04DB2946204600F0D6F994
:100F20003FE12078800601D40D2500E0E569C7F394
:100F30000A560D2D49DA00214FEA175B08464FF09B
:100F40000000002F00F4400007DA00EB80004FF4AF
:100F5000400100EBD07001EA60008115012901DD3C
:100F60004FF0FF3100224FEA850CBCF1180F06D379
:100F70001346ACF118004FF08052C24003E04FF42A
:100F8000801323FA0CF30CF10C0CBCF1200F04D3EA
:100F9000ACF1200C09FA0CF001E007FA0CF0002982
:100FA0004FF0004801DD18B90FE00ED140450CD3D9
:100FB00019EB02095F4121B9404502D19F4329EA5B
:100FC0000209BBEB175F00D0761C2088000502D514
:100FD0007B48784402E07A487844193808AA3023DC
:100FE00002F80A30037C0AF10101002E0AF1020A1C
:100FF00053546A4602DC4FF0300101E04FF03101FA
:101000004FF001088DF8001002D0A6F2FF3603E081
:1010100059EA470100D06B4E002D02DC2178090708
:1010200004D54FF002082E218DF80110C44600218E
:101030000BE0C7F303433F01C35C491C6D1E02F87C
:101040000830052908F1010801DA002DF1DC002142
:101050000CE000EB1973491C1B786D1E082902F87F
:1010600008304FEA091908F1010801DA002DF0DC17
:1010700021688B0602D516E0A8F10108E04505DDE0
:1010800002EB080313F8013C302BF5D0B8F1000F48
:1010900009DD02EB080313F8013C2E2B03D10907ED
:1010A00001D4A8F10108002D05DD3E2102F8081049
:1010B0006D1E08F10108407C002E02F8080008F1BE
:1010C000010804DA2D20764202F8080002E02B2005
:1010D00002F808000A214FF47A70864208F10108EC
:1010E0000BDB96FBF0F3303302F8083096FBF0F39D
:1010F00008F1010800FB136601E0642E0CDB64209C
:1011000096FBF0F3303302F8083096FBF0F308F169
:10111000010800FB136601E00A2E06DB96FBF1F0E6
:10112000303002F8080008F1010896FBF1F001FBED
:101130001060303002F80800A16908F1010808EBDE
:10114000050202EB0A00081AA0612078C00602D44A
:101150002046FFF75DF9216A08AE01EB0A00206224
:1011600004E0D4E9012116F8010B9047BAF1010A15
:10117000F7D22078C00602D52046FFF749F96E461F
:1011800009E016F8010B3E280FD0D4E90121904761
:10119000206A401C2062B8F10108F2D22046FFF715
:1011A0004DF909B00320BDE8F08F206A2844206281
:1011B00003E0D4E90121302090476D1EEBD3F8E71E
:1011C0001654000002FCFFFF10B5436913B1AFF3E2
:1011D000008001E0FFF755F9012010BD127800F101
:1011E00024010A7000224A700122EDE711684FF0D5
:1011F000FF32E9E710B5436913B1AFF3008001E0B6
:10120000FFF7D6F9012010BD128800F12401828475
:101210000022C2840122EDE711684FF0FF32E9E7B6
:101220002DE9F04116460C46054600F043F80368E8
:1012300093F80101012807D0FF2C12D8185D80B166
:1012400001202C70BDE8F081D3F807013246214619
:1012500003F20713C7182846BC46BDE8F041002337
:1012600060474FF0FF30EDE7754600F0EBF8AE4613
:1012700005006946534620F00700854618B020B5A2
:10128000FFF774F8BDE820404FF000064FF000076C
:101290004FF000084FF0000BAC46ACE8C009ACE8DA
:1012A000C009ACE8C009ACE8C00921F007018D46CF
:1012B0007047000010B500F005F8001D10BD00BF1C
:1012C0009D4F000000487047400000202DE9F0418C
:1012D0001F46044603260168072A01F4006004DB68
:1012E00008B116A505E016A503E008B115A500E0B4
:1012F00015A521F010002060A069C01EA0610FB1EB
:10130000401EA0612046FFF783F84FB1D4E90121C8
:1013100038469047206A401C2062C01C206206E0CC
:10132000206AFAE7D4E9012115F8010B9047761EEF
:10133000F8D22046FFF782F8BDE8F0814E414E001A
:101340006E616E00494E4600696E66002DE9F047F9
:10135000814616468AB0354878440DC88DE80D00A0
:1013600032487844801C03AC0DC884E80D0041F677
:101370009B300844372190FBF1F290FBF1F5A5F189
:10138000800501FB12041B3C02D56442012000E0F1
:101390000020DFF898A080460027FA44AAF1BE0A90
:1013A0000EE0E0070AD03246684607EB470101230A
:1013B0000AEB810104F0E5FD8DE8070064107F1C55
:1013C000002CEED1194F7F44AE3F19E0E80715D04D
:1013D00007EB04100DF1180A90E80E008AE80E00E1
:1013E000C068F04201D1981908903246012306A93D
:1013F00003A804F0C6FD03AB83E807006D10641C6E
:10140000002DE3D14FF0010332466946B8F1000FD9
:1014100003A802D004F0A0FD01E004F0B2FDC9E988
:101420000001C9F808200AB0BDE8F087205100008B
:1014300010B50446AFF300802046BDE81040FEF72B
:1014400080BF00000048704720000020000000001E
:1014500030B44FF0013C50F8042B51F8043BCCFA67
:1014600052F4D51A20D1FCB950F8042B51F8043BA2
:10147000CCFA52F4D51A17D1B4B950F8042B51F85C
:10148000043BCCFA52F4D51A0ED16CB950F8042BA7
:1014900051F8043BCCFA52F4D51A05D1002CDAD01D
:1014A00030BC4FF00000704729BAB1FA81F111F059
:1014B0001801D1F120008440F2D1CA40CB4012F093
:1014C000FF0213F0FF0330BCD01A70470149182007
:1014D000ABBEFEE72600020070470000FFE7FEE714
:1014E0007047000082B0ADF806000020ADF804009F
:1014F000FFE7BDF80400BDF80610884219DAFFE7DF
:101500000020ADF80200FFE7BDF8020040F6B73159
:10151000884207DCFFE7FFE7BDF802000130ADF8C5
:101520000200F1E7FFE7BDF804000130ADF8040068
:10153000DFE702B07047000081B0EFF3108072B6B1
:101540000090FFE7FEE7000040F28000C2F20000DA
:10155000006840F2C401C2F200010A68104440F27F
:101560008402C2F20002106040F28800C2F2000061
:1015700000680968084440F28C01C2F2000108606A
:101580007047000040F29800C2F20000018801316B
:101590000180008840F6B931884227DBFFE740F23E
:1015A0009801C2F200010020088040F29C01C2F2C2
:1015B0000001086040F2A001C2F20001086040F2A0
:1015C0000402C2F2000244F62061116040F290026F
:1015D000C2F20002106040F20802C2F20002116082
:1015E00040F29401C2F200010860B2E040F28000D3
:1015F000C2F20000006840F29001C2F200010968E6
:1016000088420BDDFFE740F28000C2F20000006874
:1016100040F29001C2F200010860FFE740F2800052
:10162000C2F20000006840F20401C2F20001096841
:1016300088420BDAFFE740F28000C2F20000006847
:1016400040F20401C2F200010860FFE740F29C0092
:10165000C2F20000006810BBFFE740F29000C2F247
:101660000000006840F20401C2F200010968401A5B
:1016700040F20C01C2F20001098888420EDDFFE74A
:1016800040F2BA01C2F2000108880130088040F23D
:101690009C01C2F2000101200860FFE7FFE740F271
:1016A0008800C2F20000006840F29401C2F200011A
:1016B000096888420BDDFFE740F28800C2F20000B3
:1016C000006840F29401C2F200010860FFE740F2B6
:1016D0008800C2F20000006840F20801C2F2000176
:1016E000096888420BDAFFE740F28800C2F2000086
:1016F000006840F20801C2F200010860FFE740F212
:10170000A000C2F20000006810BBFFE740F29400A6
:10171000C2F20000006840F20801C2F2000109684C
:10172000401A40F20C01C2F20001098888420EDD25
:10173000FFE740F2BC01C2F20001088801300880D6
:1017400040F2A001C2F2000101200860FFE7FFE7BC
:10175000FFE740F2A400C2F200000078E0B9FFE722
:1017600040F28400C2F20000006840F20E01C2F2B2
:101770000001098888420EDDFFE740F2BE01C2F297
:10178000000108880130088040F2A401C2F2000183
:1017900001200870FFE7FFE740F28400C2F200007A
:1017A000006840F20E01C2F200010988884207DA9F
:1017B000FFE740F2A401C2F2000100200870FFE739
:1017C00040F2A500C2F200000078E0B9FFE740F265
:1017D0008C00C2F20000006840F20E01C2F200016B
:1017E000098888420EDDFFE740F2C001C2F2000125
:1017F00008880130088040F2A501C2F200010120F2
:101800000870FFE7FFE740F28C00C2F200000068BA
:1018100040F20E01C2F200010988884207DAFFE7B0
:1018200040F2A501C2F2000100200870FFE77047F6
:1018300080B584B0039000F0E7F90290039801901E
:101840000198013048B1FFE740F21800C2F20000F1
:101850000168019808440190FFE7FFE700F0D4F920
:101860000299401A0199884201D2FFE7F6E704B0D5
:1018700080BD00008BB00A90099100200890FFE71E
:10188000099800680899C840002800F0A581FFE782
:1018900009980068089A012191400840079007982C
:1018A000002800F09581FFE70998406800F00300E8
:1018B000012807D0FFE70998406800F003000228DC
:1018C0002FD1FFE70A98806806900898410003200E
:1018D00000FA01F10698884306900998C0680899B3
:1018E000490000FA01F106980843069006980A9903
:1018F00088600A98406806900899012000FA01F172
:1019000006988843069009984068C0F3001008992B
:1019100000FA01F106980843069006980A99486073
:10192000FFE70998406800F00300032818D0FFE79C
:101930000A98C068069008984100032000FA01F157
:10194000069888430690099880680899490000FA2B
:1019500001F106980843069006980A99C860FFE7C7
:101960000998406800F00300022826D1FFE70A9892
:1019700008996FF0030202EA51010844006A0690D8
:10198000089800F0070081000F2000FA01F1069886
:101990008843069009980069089901F007018900B9
:1019A00000FA01F106980843069006980A99089BE8
:1019B00002EA530211440862FFE70A9800680690A1
:1019C00008984100032000FA01F106988843069028
:1019D0000998406800F003000899490000FA01F1F5
:1019E00006980843069006980A9908600998807935
:1019F0008007002800F0EB80FFE7FFE741F260007E
:101A0000C4F20200016841F001010160006800F0C9
:101A1000010005900598FFE7089820F003000821D1
:101A2000C4F2010140580690089800F003008100BC
:101A30000F2000FA01F10698884306900A98B0F149
:101A4000904F03D1FFE70020049042E00A9840F253
:101A50000041C4F60001884203D1FFE70120039052
:101A600034E00A9840F60001C4F60001884203D130
:101A7000FFE70220029026E00A9840F60041C4F6F3
:101A80000001884203D1FFE70320019018E00A9883
:101A900041F20001C4F60001884203D1FFE70420AF
:101AA00000900AE00A9941F20042C4F600020620C2
:101AB000914208BF05200090FFE700980190FFE7E2
:101AC00001980290FFE702980390FFE703980490C3
:101AD000FFE70498089901F00301890000FA01F179
:101AE0000698084306900698089921F003010822F9
:101AF000C4F20102885040F20840C4F201000068BC
:101B00000690079906988843069009988079C00640
:101B1000002805D5FFE70799069808430690FFE7D8
:101B2000069840F20841C4F20101086040F20C40FE
:101B3000C4F2010000680690079906988843069051
:101B4000099880798006002805D5FFE7079906984F
:101B500008430690FFE7069840F20C41C4F20101E9
:101B6000086040F20440C4F2010000680690079942
:101B7000069888430690099880798007002805D543
:101B8000FFE70799069808430690FFE7069840F29A
:101B90000441C4F20101086040F20040C4F20100B7
:101BA00000680690079906988843069009988079FE
:101BB000C00728B1FFE70799069808430690FFE79A
:101BC000069840F20041C4F201010860FFE7FFE718
:101BD00008980130089053E60BB0704782B001902E
:101BE000ADF802108DF801209DF8010028B1FFE743
:101BF000BDF802000199886104E0BDF80200019976
:101C00008862FFE702B0704740F2D010C2F20000D5
:101C10000068704740F21800C2F20000026840F20B
:101C2000D011C2F20001086810440860704700003B
:101C300080B582B000208DF80700032000F09AF8EC
:101C40000F2000F00DF820B1FFE701208DF807000C
:101C500002E000F049F8FFE79DF8070002B080BD00
:101C600080B582B0019000208DF8030040F218008A
:101C7000C2F20000006878B3FFE740F21000C2F241
:101C80000000006840F21801C2F200010A684FF437
:101C90007A71B1FBF2F1B0FBF1F000F045FFB0B9A1
:101CA000FFE701980F280DD8FFE701994FF0FF30AB
:101CB000002200F047F8019840F21C01C2F2000136
:101CC000086003E001208DF80300FFE703E0012036
:101CD0008DF80300FFE703E001208DF80300FFE724
:101CE0009DF8030002B080BD80B582B0FFE741F2ED
:101CF0006000C4F20200016841F001010160006867
:101D000000F0010001900198FFE7FFE741F2580061
:101D1000C4F20200016841F080510160006800F0E7
:101D2000805000900098FFE700F006F902B080BDF7
:101D300080B582B08DF807009DF9070003F0EEFD35
:101D400002B080BD80B586B08DF817000491039273
:101D500003F0FCFD02909DF9170001900298049990
:101D6000039A02F05DFF0146019803F0F7FD06B00B
:101D700080BD000080B582B00190019803F010FE94
:101D800002B080BD85B00390039800285ED1FFE7C4
:101D900047F20000C4F20000006800F4C060B0F533
:101DA000806F49D1FFE747F28001C4F20001086863
:101DB00020F48070086047F20002C4F2000211684B
:101DC000012060F34A21116040F21001C2F20001CB
:101DD0000968322251434DF68362C4F21B32A1FBE3
:101DE000022100EB91400290FFE747F21400C4F299
:101DF00000000168002049050029019006D5FFE791
:101E00000298002818BF01200190FFE70198C00741
:101E100020B1FFE7029801380290E6E747F214008C
:101E2000C4F2000000684005002804D5FFE7032045
:101E30008DF813007CE008E047F28001C4F2000155
:101E4000086820F480700860FFE76DE00398B0F543
:101E5000007F5ED1FFE747F20000C4F20000006897
:101E600000F4C060B0F5806F49D1FFE747F2800110
:101E7000C4F20001086840F48070086047F2000274
:101E8000C4F200021168012060F34A21116040F29F
:101E90001001C2F200010968322251434DF68362FB
:101EA000C4F21B32A1FB022100EB91400290FFE73C
:101EB00047F21400C4F2000001680020490500291F
:101EC000009006D5FFE70298002818BF0120009077
:101ED000FFE70098C00720B1FFE7029801380290A1
:101EE000E6E747F21400C4F200000068400500284D
:101EF00004D5FFE703208DF8130019E008E047F24E
:101F00008001C4F20001086840F480700860FFE7B7
:101F100009E047F20001C4F200010868022262F3FE
:101F20004A200860FFE7FFE700208DF81300FFE775
:101F30009DF8130005B0704747F20801C4F2000194
:101F4000086840F4804008607047000080B586B0A3
:101F50000490039100200090049820B9FFE701202D
:101F60008DF8170081E1039842F20001C4F20201EA
:101F7000096801F00F01884216D9FFE742F200001C
:101F8000C4F20200016821F00F01039A11430160BD
:101F9000006800F00F000399884204D0FFE7012099
:101FA0008DF8170061E1FFE704980078C00700286A
:101FB00000F0A380FFE704984068032839D1FFE7C9
:101FC00041F20000C4F2020000688001002804D43D
:101FD000FFE701208DF8170047E103F021F8019099
:101FE00001984BF20141C0F2C441884220D3FFE77F
:101FF00041F20800C4F20200006810F0F00F0AD0AD
:10200000FFE7049800788007002810D5FFE70498C0
:10201000806860B9FFE741F20801C4F20201086874
:10202000082262F30710086080200090FFE7FFE7B6
:1020300038E00498406802280ED1FFE741F2000022
:10204000C4F2020000688003002804D4FFE70120E6
:102050008DF8170009E10DE041F20000C4F2020022
:1020600000684005002804D4FFE701208DF8170020
:10207000FBE0FFE700F0FEF8019001984BF2014110
:10208000C0F2C44188420CD3FFE741F20801C4F218
:1020900002010868082262F307100860802000909F
:1020A000FFE7FFE741F20801C4F20201086820F0EF
:1020B0000300049A526810430860FFF7A5FD0290E0
:1020C000FFE741F20800C4F20200006800F00C00D3
:1020D00004994968B0EB810F0ED0FFE7FFF794FD3C
:1020E0000299401A41F28931884204D3FFE7032064
:1020F0008DF81700B9E0E4E7FFE70498007880075F
:1021000000282CD5FFE7049800784007002809D55F
:10211000FFE741F20801C4F20201086840F4E06000
:102120000860FFE704980078000700280BD5FFE758
:1021300041F20801C4F20201086840F4E06020F4B2
:1021400060500860FFE741F20801C4F2020108682C
:1021500020F0F000049A9268104308600DE00098A7
:10216000802809D1FFE741F20801C4F202010868A2
:1021700020F0F0000860FFE7FFE7039842F200015B
:10218000C4F20201096801F00F01884228D2FFE77A
:1021900042F20001C4F20201086820F00F00039A25
:1021A00010430860FFF730FD0290FFE742F20000A5
:1021B000C4F20200006800F00F00039988420ED0BC
:1021C000FFE7FFF721FD0299401A41F28931884269
:1021D00004D3FFE703208DF8170046E0E6E7FFE7AA
:1021E00004980078400700280CD5FFE741F2080169
:1021F000C4F20201086820F4E060049AD268104337
:102200000860FFE704980078000700280DD5FFE775
:1022100041F20801C4F20201086820F46050049AF7
:10222000126940EAC2000860FFE700F023F841F2BB
:102230000801C4F202010968C9B20A0946F29441D0
:10224000C0F60001895C01F01F01C84040F2100196
:10225000C2F20001086040F21C00C2F200000068F7
:10226000FFF7FEFC8DF81700FFE79DF8170006B09A
:1022700080BD000086B041F20800C4F20200006890
:1022800000F00C00042806D1FFE742F20040C0F243
:10229000F400019069E041F20800C4F20200006815
:1022A00000F00C00082806D1FFE743F20060C0F2FE
:1022B0006E10019058E041F20800C4F2020000687C
:1022C00000F00C000C284BD1FFE741F20C00C4F2E7
:1022D0000200016801F0030104910068C1B201200D
:1022E00000EB1110029004980090022815D0FFE72F
:1022F0000098032812D1FFE7029943F20060C0F270
:102300006E10B0FBF1F041F20C01C4F20201096859
:10231000C1F306214843059011E0FFE7029942F21C
:102320000040C0F2F400B0FBF1F041F20C01C4F245
:1023300002010968C1F3062148430590FFE741F215
:102340000C00C4F20200006800F0C061022000EB43
:102350001160039005980399B0FBF1F0019002E041
:1023600000200190FFE7FFE7FFE7019806B0704704
:10237000B0B588B00690069820B9FFE701208DF827
:102380001F00CCE306980078C007002800F09B806F
:10239000FFE741F20800C4F20200006800F00C0000
:1023A000049041F20C00C4F20200006800F0030047
:1023B000039004980C2804D1FFE70398032804D065
:1023C000FFE70498082812D1FFE741F20000C4F2A9
:1023D000020000688003002808D5FFE706984068DF
:1023E00020B9FFE701208DF81F0098E36AE0FFE7BE
:1023F00006984068B0F5803F09D1FFE741F200013F
:10240000C4F20201086840F48030086020E00698B9
:102410004068B0F5A02F0DD1FFE741F20001C4F2F2
:102420000201086840F480200860086840F48030A9
:1024300008600CE041F20001C4F20201086820F4D7
:1024400080300860086820F480200860FFE7FFE71C
:10245000FFE706984068D0B1FFE7FFF7D5FB05908E
:10246000FFE741F20000C4F2020000688003002888
:102470000CD4FFE7FFF7C8FB0599401A652804D381
:10248000FFE703208DF81F0049E3EAE719E0FFF7B3
:10249000BBFB0590FFE741F20000C4F202000068B8
:1024A000800300280CD5FFE7FFF7AEFB0599401A23
:1024B000652804D3FFE703208DF81F002FE3EAE728
:1024C000FFE7FFE7FFE7069800788007002840F164
:1024D0009F80FFE741F20800C4F20200006800F0AC
:1024E0000C00049041F20C00C4F20200006800F0FD
:1024F0000300039004980C2804D1FFE703980228F6
:1025000004D0FFE7049804282CD1FFE741F2000033
:10251000C4F2020000684005002808D5FFE70698CD
:10252000C06820B9FFE701208DF81F00F7E241F2F3
:102530000401C4F20201086820F0FE40069A126904
:1025400040EA0260086040F21C00C2F2000000682D
:10255000FFF786FB20B1FFE701208DF81F00DEE2C8
:10256000FFE754E00698C06870B3FFE741F200014E
:10257000C4F20201086840F480700860FFF744FB71
:102580000590FFE741F20000C4F202000068400538
:1025900000280CD4FFE7FFF737FB0599401A032802
:1025A00004D3FFE703208DF81F00B8E2EAE741F209
:1025B0000401C4F20201086820F0FE40069A126984
:1025C00040EA0260086021E041F20001C4F2020129
:1025D000086820F480700860FFF716FB0590FFE79D
:1025E00041F20000C4F202000068400500280CD54A
:1025F000FFE7FFF709FB0599401A032804D3FFE71B
:1026000003208DF81F008AE2EAE7FFE7FFE7FFE714
:10261000069800780007002849D5FFE7069840692A
:1026200010B3FFE741F29401C4F20201086840F0E0
:1026300001000860FFF7E8FA0590FFE741F2940017
:10264000C4F202000068800700280CD4FFE7FFF7FF
:10265000DBFA0599401A032804D3FFE703208DF81D
:102660001F005CE2EAE721E041F29401C4F20201BA
:10267000086820F001000860FFF7C6FA0590FFE740
:1026800041F29400C4F202000068800700280CD5D3
:10269000FFE7FFF7B9FA0599401A032804D3FFE7CB
:1026A00003208DF81F003AE2EAE7FFE7FFE706980C
:1026B00000784007002840F1C680FFE700208DF831
:1026C0000B0041F25800C4F202000068C00000286C
:1026D00013D4FFE7FFE741F25800C4F2020001689B
:1026E00041F080510160006800F080500190019835
:1026F000FFE701208DF80B00FFE747F20000C4F26E
:1027000000000068C005002822D4FFE747F200015E
:10271000C4F20001086840F480700860FFF774FAA2
:102720000590FFE747F20000C4F200000068C00512
:1027300000280CD4FFE7FFF767FA0599401A032831
:1027400004D3FFE703208DF81F00E8E1EAE7FFE785
:10275000FFE706988068012809D1FFE741F2900160
:10276000C4F20201086840F0010008601FE006980A
:10277000806805280DD1FFE741F29001C4F2020103
:10278000086840F004000860086840F00100086034
:102790000CE041F29001C4F20201086820F001004F
:1027A0000860086820F004000860FFE7FFE7FFE723
:1027B00006988068E0B1FFE7FFF726FA0590FFE78B
:1027C00041F29000C4F202000068800700280ED495
:1027D000FFE7FFF719FA0599401A41F2893188425B
:1027E00004D3FFE703208DF81F0098E1E8E71BE022
:1027F000FFF70AFA0590FFE741F29000C4F20200E9
:102800000068800700280ED5FFE7FFF7FDF905995E
:10281000401A41F28931884204D3FFE703208DF842
:102820001F007CE1E8E7FFE79DF80B00012809D1D4
:10283000FFE741F25801C4F20201086820F080501D
:102840000860FFE7FFE7069800788006002849D572
:10285000FFE70698806910B3FFE741F29801C4F2E0
:102860000201086840F001000860FFF7CDF905900B
:10287000FFE741F29800C4F20200006880070028D8
:102880000CD4FFE7FFF7C0F90599401A032804D3D9
:10289000FFE703208DF81F0041E1EAE721E041F264
:1028A0009801C4F20201086820F001000860FFF7F7
:1028B000ABF90590FFE741F29800C4F2020000680E
:1028C000800700280CD5FFE7FFF79EF90599401A0D
:1028D000032804D3FFE703208DF81F001FE1EAE778
:1028E000FFE7FFE70698C069002800F01481FFE7C2
:1028F00041F20800C4F20200006800F00C000C284D
:1029000000F0B080FFE70698C06902287CD1FFE79D
:1029100041F20001C4F20201086820F080700860F2
:10292000FFF772F90590FFE741F20000C4F20200E0
:102930000068800100280CD5FFE7FFF765F90599CD
:10294000401A032804D3FFE703208DF81F00E6E0B8
:10295000EAE741F20C01C4F20201086848F20C02F5
:10296000C0F29F121040DDF818C0DCF82020DCF81F
:102970002450DCF828E0DCF82C306FF00F0404EB76
:102980000514224342EA0E22DCF8304040F2000EE9
:10299000CFF6E07E0EEA045EAEF5001E42EA0E02BD
:1029A000DCF834E04FF07E4C0CEA0E6C0CF17E4CFF
:1029B00042EA0C0242EAC3621043086041F200029C
:1029C000C4F20202106840F080701060086840F0A5
:1029D00080700860FFF718F90590FFE741F20000EA
:1029E000C4F202000068800100280CD4FFE7FFF762
:1029F0000BF90599401A032804D3FFE703208DF84B
:102A00001F008CE0EAE72CE041F20001C4F2020171
:102A1000086820F080700860FFF7F6F80590FFE77F
:102A200041F20000C4F202000068800100280CD5C9
:102A3000FFE7FFF7E9F80599401A032804D3FFE7F9
:102A400003208DF81F006AE0EAE741F20C01C4F2AE
:102A5000020108684FF6FC72CFF6EE621040086083
:102A6000FFE757E00698C069012804D1FFE701207D
:102A70008DF81F0053E041F20C00C4F20200006820
:102A80000390039800F003000699096A88423BD13D
:102A9000FFE7039800F0F00006994A6A6FF00F0113
:102AA00001EB021188422FD1FFE7039800F4FE40AA
:102AB0000699896AB0EB012F26D1FFE7039800F051
:102AC00078400699C96AB0EBC16F1DD1FFE7039842
:102AD00000F4C00006990A6B0021CFF6E07101EA0C
:102AE0000251A1F5001188420ED1FFE7039800F0D2
:102AF000C06006994A6B4FF07E4101EA026101F124
:102B00007E41884204D0FFE701208DF81F0006E0D7
:102B1000FFE7FFE7FFE700208DF81F00FFE79DF8C4
:102B20001F0008B0B0BD000080B582B001900198D0
:102B300002F064FC02B080BD81B0009001B070472B
:102B400081B0009001B0704781B0009001B0704733
:102B500081B0009001B0704781B0009001B0704723
:102B600081B0009001B0704785B003900291FFE7FB
:102B7000039890F83C00012804D1FFE702208DF86B
:102B800013008CE00399012081F83C00FFE7FFE788
:102B90000399022081F83D00039800684068019085
:102BA00003980068806800900398006842F600412E
:102BB000C4F20101884209D0FFE70398006843F29C
:102BC0000041C4F2010188420AD1FFE7019820F4D4
:102BD0007000019002984168019808430190FFE756
:102BE00001984FF68F71CFF6FF510840019002987F
:102BF00001680198084301900198039909684860A9
:102C00000398006842F60041C4F2010188422AD0CC
:102C1000FFE703980068B0F1804F24D0FFE70398E6
:102C2000006840F20041C4F2000188421BD0FFE777
:102C30000398006840F60001C4F20001884212D0F7
:102C4000FFE70398006843F20041C4F201018842A3
:102C500009D0FFE70398006844F20001C4F20101C3
:102C600088420ED1FFE7009820F080000090029883
:102C7000816800980843009000980399096888606B
:102C8000FFE70399012081F83D00FFE70399002049
:102C900081F83C00FFE700208DF81300FFE79DF866
:102CA000130005B07047000081B0009001B070477C
:102CB00080B582B00090009820B9FFE701208DF820
:102CC000070045E0009890F83D0040B9FFE7009903
:102CD000002081F83C00009800F03EF8FFE70099E2
:102CE000022081F83D00009951F8040B02F012FC1B
:102CF0000099012081F84800FFE70099012081F840
:102D00003E00009981F83F00009981F84000009949
:102D100081F84100009981F84200009981F8430050
:102D2000FFE7FFE70099012081F84400009981F84E
:102D30004500009981F84600009981F84700FFE7B7
:102D40000099012081F83D0000208DF80700FFE781
:102D50009DF8070002B080BD80B584B00390039851
:102D6000006841F20001C4F20001884219D1FFE776
:102D7000FFE741F25800C4F20200016841F010017F
:102D80000160006800F0100002900298FFE7362012
:102D9000019000221146FEF7D5FF0198FEF7C8FF0B
:102DA000FFE704B080BD000083B00190019890F867
:102DB0003D00012804D0FFE701208DF80B0060E002
:102DC0000199022081F83D0001980168C86840F02F
:102DD0000100C8600198006842F60041C4F2010198
:102DE00088422AD0FFE701980068B0F1804F24D0D4
:102DF000FFE70198006840F20041C4F200018842F8
:102E00001BD0FFE70198006840F60001C4F2000102
:102E1000884212D0FFE70198006843F20041C4F2F3
:102E20000101884209D0FFE70198006844F20001DF
:102E3000C4F20101884219D1FFE701980068806857
:102E40000721C0F2010108400090009806280CD02C
:102E5000FFE70098B0F5803F07D0FFE701980168D1
:102E6000086840F001000860FFE706E0019801688B
:102E7000086840F001000860FFE700208DF80B00B3
:102E8000FFE79DF80B0003B07047000080B582B0EB
:102E90000190019840F2D401C2F2000188421ED193
:102EA000FFE740F2D401C2F200010868426A40F232
:102EB000CC00C2F2000002600A6800215162006882
:102EC00000EB800001014BF20040C0F2C44090FBD7
:102ED000F1F040F28001C2F200010860FFE70198C2
:102EE00040F22011C2F2000188421ED1FFE740F2F9
:102EF0002011C2F200010868426A40F2CC00C2F21E
:102F0000000002600A6800215162006800EB800046
:102F100001014BF20040C0F2C44090FBF1F040F2DE
:102F20008801C2F200010860FFE7FEF70DFB02B066
:102F300080BD000080B586B004900391029200200D
:102F40008DF80700FFE7049890F83C00012804D1B1
:102F5000FFE702208DF8170080E00499012081F836
:102F60003C00FFE7FFE70298B0B9FFE7049800686C
:102F7000039B19685A68DB6802F0B4FB0498016887
:102F8000886920F00C0088610398826804980168C1
:102F900088691043886156E00298042817D1FFE73A
:102FA00004980068039B19685A68DB6802F012FCF9
:102FB00004980168886920F44060886103988268F9
:102FC00004980168886940EA022088613AE0029822
:102FD000082816D1FFE704980068039B19685A680F
:102FE000DB6802F02DFC04980168C86920F00C0031
:102FF000C8610398826804980168C8691043C86171
:103000001FE002980C2817D1FFE704980068039B83
:1030100019685A68DB6802F049FC04980168C869BD
:1030200020F44060C8610398826804980168C86908
:1030300040EA0220C86103E001208DF80700FFE7A5
:10304000FFE7FFE7FFE7FFE70499002081F83C0076
:10305000FFE79DF807008DF81700FFE79DF81700C0
:1030600006B080BD80B582B00090009820B9FFE71F
:1030700001208DF8070045E0009890F83D0040B928
:10308000FFE70099002081F83C00009800F03EF82E
:10309000FFE70099022081F83D00009951F8040BE8
:1030A00002F038FA0099012081F84800FFE7009902
:1030B000012081F83E00009981F83F00009981F8D5
:1030C0004000009981F84100009981F84200009980
:1030D00081F84300FFE7FFE70099012081F84400F1
:1030E000009981F84500009981F84600009981F81F
:1030F0004700FFE70099012081F83D0000208DF88E
:103100000700FFE79DF8070002B080BD80B58EB0D4
:103110000D9000200C900B900A90099008900D984B
:103120000068B0F1804F38D1FFE7FFE741F2580067
:10313000C4F20200016841F001010160006800F082
:10314000010007900798FFE7FFE741F24C00C4F247
:103150000200016841F001010160006800F0010017
:1031600006900698FFE74FF400400890022009906F
:10317000002002900A900B9001200C904FF090409C
:1031800008A9FEF777FB029A1C2003901146FEF770
:10319000D9FD0398FEF7CCFD41E00D98006840F2A0
:1031A0000041C4F20001884238D1FFE7FFE741F255
:1031B0005800C4F20200016841F002010160006899
:1031C00000F0020005900598FFE7FFE741F24C0090
:1031D000C4F20200016841F002010160006800F0E1
:1031E000020004900498FFE7102008900220099044
:1031F000002100910A910B910C9040F20040C4F61E
:10320000000008A9FEF736FB009A1D200190114628
:10321000FEF798FD0198FEF78BFDFFE7FFE70EB084
:1032200080BD000080B596B01490139100208DF8F9
:103230004B00139828B9FFE7149890F83E000F90C0
:1032400034E01398042805D1FFE7149890F83F0064
:103250000E9028E01398082805D1FFE7149890F8FD
:1032600040000D901CE013980C2805D1FFE714983E
:1032700090F841000C9010E01398102805D1FFE75A
:10328000149890F842000B9004E0149890F84300D2
:103290000B90FFE70B980C90FFE70C980D90FFE761
:1032A0000D980E90FFE70E980F90FFE70F988DF89E
:1032B0004300139828B9FFE7149890F844000A9047
:1032C0001CE01398042805D1FFE7149890F84500F6
:1032D000099010E01398082805D1FFE7149890F89A
:1032E0004600089004E0149890F847000890FFE723
:1032F00008980990FFE709980A90FFE70A988DF867
:1033000042009DF84300012805D1FFE79DF84200E7
:10331000012804D0FFE701208DF85700F9E0139849
:1033200028B9FFE71499022081F83E0038E013988D
:10333000042806D1FFE71499022081F83F00079086
:103340002CE01398082806D1FFE71499022081F891
:10335000400006901FE013980C2806D1FFE714994F
:10336000022081F84100059012E01398102806D140
:10337000FFE71499022081F84200049005E01499B7
:10338000022081F843000490FFE704980590FFE7CE
:1033900005980690FFE706980790FFE70798FFE774
:1033A000139828B9FFE71499022081F844001EE021
:1033B0001398042806D1FFE71499022081F84500EC
:1033C000039012E01398082806D1FFE71499022011
:1033D00081F84600029005E01499022081F8470028
:1033E0000290FFE702980390FFE70398FFE7139826
:1033F00001900C2825D80199DFE801F00723232349
:103400000E232323152323231C0014980168C86866
:1034100040F00200C86018E014980168C86840F0E5
:103420000400C86011E014980168C86840F0080002
:10343000C8600AE014980168C86840F01000C860CD
:1034400003E001208DF84B00FFE79DF84B000028BA
:103450005AD1FFE7149800681399012202F026F967
:103460001498006842F60041C4F2010188422AD053
:10347000FFE714980068B0F1804F24D0FFE714985C
:10348000006840F20041C4F2000188421BD0FFE70F
:103490001498006840F60001C4F20001884212D07E
:1034A000FFE71498006843F20041C4F2010188422A
:1034B00009D0FFE71498006844F20001C4F201014A
:1034C000884219D1FFE71498006880680721C0F28C
:1034D000010108401190119806280CD0FFE71198BF
:1034E000B0F5803F07D0FFE714980168086840F006
:1034F00001000860FFE706E014980168086840F0E2
:1035000001000860FFE7FFE79DF84B008DF85700CA
:10351000FFE79DF8570016B080BD000080B584B06D
:10352000039003980068C0680290039800680069DF
:1035300001909DF804008007002824D5FFE79DF83E
:103540000800800700281DD5FFE7039801686FF089
:1035500002000861039901200877039800688069D8
:10356000800720B1FFE70398FFF790FC06E003987F
:1035700000F054F9039800F055F9FFE70399002093
:103580000877FFE7FFE79DF804004007002825D5EE
:10359000FFE79DF80800400700281ED5FFE70398C5
:1035A00001686FF00400086103990220087703980E
:1035B0000068806910F4407F04D0FFE70398FFF7AC
:1035C00065FC06E0039800F029F9039800F02AF959
:1035D000FFE7039900200877FFE7FFE79DF8040065
:1035E0000007002824D5FFE79DF808000007002801
:1035F0001DD5FFE7039801686FF008000861039983
:103600000420087703980068C069800720B1FFE7AD
:103610000398FFF73BFC06E0039800F0FFF80398DF
:1036200000F000F9FFE7039900200877FFE7FFE7C4
:103630009DF80400C006002825D5FFE79DF8080086
:10364000C00600281ED5FFE7039801686FF0100040
:10365000086103990820087703980068C06910F48E
:10366000407F04D0FFE70398FFF710FC06E00398C3
:1036700000F0D4F8039800F0D5F8FFE70399002094
:103680000877FFE7FFE79DF80400C00778B1FFE780
:103690009DF80800C00748B1FFE7039801686FF084
:1036A00001000861039800F0C1F8FFE7FFE7019807
:1036B00000F08000802806D0FFE79DF80500800616
:1036C000002810D5FFE79DF808000006002809D55E
:1036D000FFE7039801686FF4025008610398FFF751
:1036E0002FFAFFE7FFE79DF80500C00780B1FFE76D
:1036F0009DF808000006002809D5FFE70398016837
:103700006FF4807008610398FFF716FAFFE7FFE790
:103710009DF804004006002810D5FFE79DF808003A
:103720004006002809D5FFE7039801686FF04000C4
:103730000861039800F090F8FFE7FFE79DF80400A8
:103740008006002810D5FFE79DF8080080060028B5
:1037500009D5FFE7039801686FF02000086103981E
:10376000FFF7F2F9FFE7FFE79DF80600C006002823
:1037700010D5FFE79DF80A00C006002809D5FFE72D
:10378000039801686FF4801008610398FFF7E4F96B
:10379000FFE7FFE79DF806008006002810D5FFE749
:1037A0009DF80A008006002809D5FFE70398016804
:1037B0006FF4001008610398FFF7CAF9FFE7FFE70D
:1037C0009DF806004006002810D5FFE79DF80A0086
:1037D0004006002809D5FFE7039801686FF48000D0
:1037E00008610398FFF7BCF9FFE7FFE79DF80600C3
:1037F0000006002810D5FFE79DF80A000006002803
:1038000009D5FFE7039801686FF400000861039889
:10381000FFF74AFAFFE7FFE704B080BD81B00090F0
:1038200001B0704781B0009001B0704780B582B0A0
:103830000190019840F26C11C2F20001884209D156
:10384000FFE700F04FFF00F0A9FB00F0CFFBFDF712
:1038500099FEFFE702B080BD81B0009001B07047D3
:10386000FFE7FEE780B582B000F06CF9002862D077
:10387000FFE740F21600C2F200000078022859D19A
:10388000FFE740F21700C2F200000078012815D1CE
:10389000FFE740F20C00C2F20000018864310180B1
:1038A0000088B0F57A7F08DDFFE740F20C01C2F234
:1038B00000014FF47A700880FFE7FFE740F217003D
:1038C000C2F200000078022816D1FFE740F20E0095
:1038D000C2F20000018864310180008842F2117157
:1038E000884208DBFFE740F20E01C2F2000142F21B
:1038F00010700880FFE7FFE740F21700C2F20000F7
:103900000078032815D1FFE740F2C400C2F200009E
:103910000168643101600068B0F57A7F08DDFFE777
:1039200040F2C401C2F200014FF47A700860FFE770
:10393000FFE7FFE7FFE700F023F9002861D0FFE78A
:1039400040F21600C2F200000078022858D1FFE7CA
:1039500040F21700C2F200000078012813D1FFE7FF
:1039600040F20C00C2F20000018864390180008836
:10397000632807DCFFE740F20C01C2F2000164207B
:103980000880FFE7FFE740F21700C2F2000000786E
:10399000022815D1FFE740F20E00C2F200000188B4
:1039A000643901800088B0F57A7F08DAFFE740F2D9
:1039B0000E01C2F200014FF47A700880FFE7FFE7C2
:1039C00040F21700C2F200000078032817D1FFE789
:1039D00040F2C400C2F2000001686439016000686E
:1039E00010F57A7F0ADAFFE740F2C401C2F2000163
:1039F0004FF61840CFF6FF700860FFE7FFE7FFE7DC
:103A0000FFE700F017F9E0B3FFE740F21601C2F25A
:103A100000010191087801300870002000F0CEFB11
:103A20000198007804280CDBFFE740F21601C2F28F
:103A300000010120087040F21501C2F20001087077
:103A4000FFE740F21600C2F200000078012804D11E
:103A5000FFE7012000F090FF03E0012000F068FF85
:103A6000FFE740F21600C2F200000078022807D1FA
:103A7000FFE740F21701C2F2000101200870FFE7E2
:103A8000FFE700F0B9F800285AD0FFE740F216002F
:103A9000C2F200000078012813D1FFE740F21500C0
:103AA000C2F200000178013101700078032807DBC1
:103AB000FFE740F21501C2F2000101200870FFE7A4
:103AC000FFE740F21600C2F200000078022813D18E
:103AD000FFE740F21700C2F20000017801310170E7
:103AE0000078042807DBFFE740F21701C2F200016B
:103AF00001200870FFE7FFE740F21600C2F2000065
:103B0000007803281BD1FFE700F058F8B0B1FFE7B9
:103B100040F2BE01C2F200010020088040F2C00164
:103B2000C2F20001088040F2BA01C2F2000108802E
:103B300040F2BC01C2F200010880FFE7FFE7FFE7A7
:103B400002B080BD81B040F2B910C2F2000000782E
:103B500070B1FFE740F2B911C2F2000108788DF8A8
:103B60000200002008709DF802008DF8030003E0B9
:103B700000208DF80300FFE79DF8030001B07047B7
:103B800081B040F2BE10C2F20000007870B1FFE7D1
:103B900040F2BE11C2F2000108788DF80200002048
:103BA00008709DF802008DF8030003E000208DF8F6
:103BB0000300FFE79DF8030001B0704781B040F2B9
:103BC000C510C2F20000007870B1FFE740F2C511E5
:103BD000C2F2000108788DF80200002008709DF8FC
:103BE00002008DF8030003E000208DF80300FFE7DA
:103BF0009DF8030001B0704781B040F2C310C2F2DB
:103C00000000007870B1FFE740F2C311C2F200017A
:103C100008788DF80200002008709DF802008DF8E9
:103C2000030003E000208DF80300FFE79DF8030088
:103C300001B0704781B040F2C810C2F200000078B5
:103C400070B1FFE740F2C811C2F2000108788DF8A8
:103C50000200002008709DF802008DF8030003E0C8
:103C600000208DF80300FFE79DF8030001B07047C6
:103C700080B540F2CC10C2F20000007840F214018E
:103C8000C2F200010978884213DAFFE740F214001B
:103C9000C2F20000007840F2CC11C2F200010978B3
:103CA000401A40F2CD11C2F20001087000F024F871
:103CB00020E040F2CC10C2F20000007840F2140183
:103CC000C2F200010978884213DDFFE740F2CC1010
:103CD000C2F20000007840F21401C2F2000109783B
:103CE000401A40F2CE11C2F20001087000F070F8E4
:103CF000FFE7FFE780BD000040F2CD10C2F20000F8
:103D00000078C00790B1FFE740F2B811C2F200019D
:103D10000120087040F2B912C2F2000200211170B5
:103D200040F2BC11C2F200010870FFE740F2CD1072
:103D3000C2F2000000788007002812D5FFE740F2A9
:103D4000BD11C2F200010120087040F2BE12C2F2A1
:103D500000020021117040F2C111C2F2000108708E
:103D6000FFE740F2CD10C2F20000007840070028C3
:103D700012D5FFE740F2C211C2F200010120087023
:103D800040F2C312C2F200020021117040F2C611CB
:103D9000C2F200010870FFE740F2CD10C2F200004D
:103DA00000780007002812D5FFE740F2C711C2F2E1
:103DB00000010120087040F2C812C2F20002002186
:103DC000117040F2CB11C2F200010870FFE770479A
:103DD00040F2CE10C2F200000078C007B8B1FFE791
:103DE00040F2B910C2F200000121017040F2B81295
:103DF000C2F200020020107040F2BA12C2F20002B9
:103E0000117040F2BC11C2F200010870FFE740F2ED
:103E1000CE10C2F2000000788007002817D5FFE717
:103E200040F2BE10C2F200000121017040F2BD124A
:103E3000C2F200020020107040F2BF12C2F2000273
:103E4000117040F2C111C2F200010870FFE740F2A8
:103E5000CE10C2F2000000784007002817D5FFE717
:103E600040F2C310C2F200000121017040F2C21200
:103E7000C2F200020020107040F2C412C2F200022E
:103E8000117040F2C611C2F200010870FFE740F263
:103E9000CE10C2F2000000780007002817D5FFE717
:103EA00040F2C810C2F200000121017040F2C712B6
:103EB000C2F200020020107040F2C912C2F20002E9
:103EC000117040F2CB11C2F200010870FFE7704799
:103ED00081B000208DF803008DF802008DF80100FC
:103EE00040F21040C4F6000001688DF80210102165
:103EF000C4F600010A688DF80120006800F0070090
:103F0000096801F0010140EAC1008DF803009DF845
:103F1000030001B07047000080B58AB0002009900E
:103F20000890079006900590FFE741F24C00C4F21C
:103F30000200016841F002010160006800F0020027
:103F400004900498FFE7FFE741F24C00C4F202003E
:103F5000016841F001010160006800F00100039078
:103F60000398FFE707200590002001900690079036
:103F7000089040F20040C4F6000005A90291FDF748
:103F800079FC019802990122059206900790089009
:103F90004FF09040FDF76EFC0AB080BD80B582B056
:103FA00040F2A600C2F200000178013101700078F1
:103FB000152818DBFFE7FFF78BFF40F2CC11C2F2A8
:103FC000000101910870FFF753FE0198007840F25C
:103FD0001401C2F20001087040F2A601C2F2000111
:103FE00000200870FFE702B080BD000040F2BC1066
:103FF000C2F200000078012808D1FFE740F2A801D2
:10400000C2F2000108680130086006E040F2A80131
:10401000C2F2000100200860FFE740F2C110C2F2C6
:1040200000000078012808D1FFE740F2AC01C2F29D
:10403000000108680130086006E040F2AC01C2F2FD
:10404000000100200860FFE740F2C610C2F2000045
:104050000078012808D1FFE740F2B001C2F2000168
:1040600008680130086006E040F2B001C2F20001C9
:1040700000200860FFE740F2CB10C2F20000007899
:10408000012808D1FFE740F2B401C2F2000108683C
:104090000130086006E040F2B401C2F200010020E5
:1040A0000860FFE740F2A800C2F200000068B0F527
:1040B0007A7F0DD9FFE740F2BB11C2F20001012067
:1040C000087040F2BC11C2F2000100200870FFE746
:1040D00040F2AC00C2F200000068B0F57A7F0DD962
:1040E000FFE740F2C011C2F200010120087040F267
:1040F000C111C2F2000100200870FFE740F2B000D9
:10410000C2F200000068B0F57A7F0DD9FFE740F2F7
:10411000C511C2F200010120087040F2C611C2F2BE
:10412000000100200870FFE740F2B400C2F2000076
:104130000068B0F57A7F0DD9FFE740F2CA11C2F2EC
:1041400000010120087040F2CB11C2F200010020F2
:104150000870FFE77047000080B586B0002005902A
:1041600004900390029001904FF6FF71019102902C
:1041700003210491039040F60000C4F6000001A959
:10418000FDF778FB06B080BD80B586B000200590B5
:1041900004900390029001904FF6FF71019101216C
:1041A000029103210491039040F60000C4F6000040
:1041B00001A9FDF75FFB06B080BD000080B584B0AB
:1041C000ADF80E0040F61400C4F600000068ADF82B
:1041D0000C00002101910291084600F0A1F900F0C5
:1041E000D1FA01980290FFE70298800A4A2809D87C
:1041F000FFE7BDF80E0000F08FFAFFE702980130EC
:104200000290F1E7BDF80C0040F61401C4F600017D
:10421000086004B080BD000080B58CB000200B9019
:104220000A90099008900790FFE741F24C00C4F211
:104230000200016841F004010160006800F0040020
:1042400006900698FFE7FFE741F24C00C4F2020037
:10425000016841F001010160006800F00100059073
:104260000598FFE7FFE741F24C00C4F20200016845
:1042700041F002010160006800F00200049004981F
:10428000FFE74FF44870079001200190089000204C
:1042900002900A90099040F20040C4F6000007A97D
:1042A0000391FDF7E7FA019A029803994FF480739E
:1042B000079308920A9009904FF09040FDF7DAFAC0
:1042C000FFF762FF1821C4F60001086840F480700F
:1042D000086040F21841C4F60001086840F4087014
:1042E00008600CB080BD000080B582B08DF807007A
:1042F000ADF804108DF803209DF8030020388DF8E8
:1043000003009DF80700BDF804109DF8032002EBA0
:10431000420346F2A442C0F6000202EB031200F090
:1043200003F802B080BD000080B586B08DF817009C
:10433000ADF81410049200200090039002908DF8C4
:1043400007009DF817008DF807009DF80700BDF8DD
:10435000141000F0E5F800980390FFE70398172881
:1043600037D8FFE700F00EFA00200290FFE702982E
:104370000F281ED8FFE70498039930F8110002991E
:10438000C840C00740B9FFE740F20000C2F2000099
:10439000008800F0C1F907E040F2C800C2F2000056
:1043A000008800F0B9F9FFE7FFE7029801300290BA
:1043B000DDE79DF8070001308DF807009DF8070044
:1043C000BDF8141000F0ACF8FFE70398013003903B
:1043D000C4E706B080BD000080B582B040F614008E
:1043E000C4F600000068ADF80600FFF715FF0020D6
:1043F00000F036F8014640F2D000C2F20000018021
:10440000008848F23021884203D1FFE700F056FED1
:1044100002E000F0E3FEFFE7002000F021F840F2A8
:10442000D001C2F200010880BDF8060040F6140178
:10443000C4F60001086002B080BD000080B582B003
:10444000FFF7CAFF0020019000F05EF84FF6FF7002
:1044500000F078F80198FFF7B1FE02B080BD0000CF
:1044600080B582B08DF8070040F22842C4F6000201
:10447000106840F400701060106840F480701060A4
:1044800040F21841C4F600010091086840F0200095
:1044900008609DF8070040F61403C4F60003186096
:1044A000106840F02000106000BF00BF00BF086827
:1044B00040F020000860086840F480700860FFF752
:1044C0004BFE2821C4F60001086840F480700860A3
:1044D00000BF00BF00BF40F61000C4F60000006837
:1044E000ADF804001821C4F60001086840F480709B
:1044F0000860FFF749FE0099086840F40070086002
:10450000BDF8040002B080BD81B0ADF80200BDF876
:10451000020040F20001C2F20001088001B07047C1
:1045200080B582B08DF80700ADF804109DF8071033
:10453000202000F059F9BDF80410212000F054F9B2
:1045400002B080BD81B0ADF80200BDF8020040F2BB
:10455000C801C2F20001088001B0704780B540F286
:10456000CF10C2F200000078012873D1FFE740F2BB
:104570001600C2F20000007801282BD1FFE740F2BC
:104580001500C2F20000007801280DD1FFE740F2CB
:104590008400C2F20000006840F28C01C2F2000107
:1045A000096800F073FBFFE740F21500C2F200005B
:1045B000007802280DD1FFE740F28400C2F200002B
:1045C000006840F28C01C2F20001096800F0E8FBCB
:1045D000FFE7FFE740F21600C2F200000078022871
:1045E00012D1FFE740F20C00C2F20000008840F256
:1045F0000E01C2F20001098840F2C402C2F20002B8
:10460000126800F075FCFFE740F21600C2F20000ED
:104610000078032817D1FFE740F2BA00C2F2000089
:10462000008840F2BC01C2F20001098840F2BE02DB
:10463000C2F20002128840F2C003C2F200031B88DB
:1046400000F098FCFFE740F2CF11C2F20001002019
:104650000870FFE780BD000080B586B08DF81700B8
:10466000ADF81410049240F61400C4F6000000687F
:10467000ADF80E0000200290BDF81400ADF8060061
:10468000FFE7049801780020009049B1FFE7BDF8EA
:1046900006100020B1F5A07FB8BF01200090FFE711
:1046A0000098C007A0B1FFE79DF81700BDF80610FD
:1046B000049A1278FFF718FEBDF806001038ADF81E
:1046C0000600049801300490029801300290D8E767
:1046D000BDF80E0040F61401C4F60001086006B0F3
:1046E00080BD000040F2B800C2F200000178013144
:1046F0000170007865280DDBFFE740F2CF11C2F2B0
:1047000000010120087040F2B801C2F2000100204F
:104710000870FFE77047000081B0ADF8020040F27A
:104720002842C4F60002106840F40070106040F2A5
:104730001841C4F60001086840F4807008600868F9
:1047400040F020000860BDF8020040F61403C4F6F3
:1047500000031860106840F02000106000BF00BF28
:1047600000BF086840F020000860086840F48070CE
:10477000086000BF00BF00BF086840F40070086018
:1047800001B0704740F22842C4F60002106840F4BD
:1047900000701060106840F48070106040F21841A2
:1047A000C4F60001086840F02000086040F61403D9
:1047B000C4F6000322201860106840F0200010604A
:1047C00000BF00BF00BF086840F020000860086814
:1047D00040F48070086000BF00BF00BF086840F46C
:1047E000007008607047000081B08DF80300ADF8DC
:1047F000001040F22842C4F60002106840F4007035
:104800001060106840F48070106040F21841C4F6E7
:104810000001086840F0200008609DF8030040F6A1
:104820001403C4F600031860106840F02000106004
:1048300000BF00BF00BF086840F0200008600868A3
:1048400040F480700860BDF800001860106840F007
:104850002000106000BF00BF00BF086840F02000CB
:104860000860086840F48070086001B0704700007C
:1048700080B58EB000200D900C900B900A9009909E
:10488000FFE741F24C00C4F20200016841F004016C
:104890000160006800F0040008900898FFE7FFE757
:1048A00041F24C00C4F20200016841F008010160CD
:1048B000006800F0080007900798FFE740F6000046
:1048C000C4F6000001904FF47F4100910122029252
:1048D000FDF784F9029A40F60040C4F60000049007
:1048E00004210591FDF77AF9009A0198029909923D
:1048F0000A91002106910B910C9109A90391FCF7F3
:10490000B9FF029B03990498DDF814C0069ACDF80C
:1049100024C00A930B920C92FCF7ACFF0920FCF721
:1049200087FF04980599069AFDF758F90EB080BDE7
:1049300080B584B08DF80F0040F60040C4F600004A
:1049400001900421029101220092FDF747F9009A9B
:104950009DF80F00411E4FF48070884081B240F6F0
:104960000000C4F60000FDF739F901980299002211
:10497000FDF734F904B080BD80B584B08DF80F0028
:1049800040F60040C4F6000000900421019101228D
:10499000FDF724F99DF80F00411E4FF48070884008
:1049A00081B240F60000C4F6000000220292FDF73A
:1049B00015F900980199029AFDF710F904B080BD2D
:1049C00080B540F28400C2F20000006840F20E019F
:1049D000C2F200010988884204DDFFE70220FFF7E8
:1049E000CBFF03E00220FFF7A3FFFFE740F28800C0
:1049F000C2F20000006840F20E01C2F20001098814
:104A0000884204DDFFE70320FFF7B6FF03E0032041
:104A1000FFF78EFFFFE740F2BA00C2F20000008805
:104A2000022808DCFFE740F2BC00C2F20000008868
:104A3000032804DBFFE70820FFF79EFF03E00820C0
:104A4000FFF776FFFFE780BD83B0FFE741F24C0040
:104A5000C4F20200016841F020010160006800F02A
:104A6000200002900298FFE7FFE741F24C00C4F2F9
:104A70000200016841F001010160006800F00100DE
:104A800001900198FFE7FFE741F24C00C4F20200F9
:104A9000016841F002010160006800F0020000902E
:104AA0000098FFE703B0704780B588B000210091FF
:104AB000079106910591049103910291019140F2B1
:104AC000D400C2F200004FF0804202604F224260E8
:104AD00081604FF0FF32C26001618161FEF7C2FA6E
:104AE00018B1FFE7FCF728FDFFE7002005900790CD
:104AF00040F2D400C2F2000005A9FEF735F818B163
:104B0000FFE7FCF719FDFFE7002201920120029068
:104B10000392049240F2D400C2F2000001A9FEF711
:104B200009FA18B1FFE7FCF707FDFFE708B080BD01
:104B300080B588B0002100910791069105910491FC
:104B400003910291019140F22010C2F2000040F264
:104B50000042C4F2000202604F22426081604FF6C0
:104B6000FF72C26001618161FEF77CFA18B1FFE754
:104B7000FCF7E2FCFFE700200590079040F22010D0
:104B8000C2F2000005A9FDF7EFFF18B1FFE7FCF73F
:104B9000D3FCFFE7002201920120029003920492CD
:104BA00040F22010C2F2000001A9FEF7C3F918B1CB
:104BB000FFE7FCF7C1FCFFE708B080BD80B584B01B
:104BC000002103910291019140F26C10C2F20000A9
:104BD00041F20002C4F2000202604F224260816092
:104BE00040F2E732C2608161FEF762F818B1FFE778
:104BF000FCF7A2FCFFE700200190039040F26C104C
:104C0000C2F2000001A9FDF7AFFF18B1FFE7FCF702
:104C100093FCFFE704B080BDFFE7FEE7FFE7FEE798
:104C200088B0079006910592079800F0070004905D
:104C30000498C0F10700052803D3FFE70420019082
:104C400004E00498C0F107000190FFE70198039089
:104C500004980430062803D8FFE70020009003E002
:104C6000049803380090FFE7009802900698039993
:104C7000012202FA01F101390840029B984005998E
:104C80009A40013A1140084308B0704780B588B097
:104C900007900691002005900490039002900190E7
:104CA00047F27F72C0F600021820BF21FFF7D4FC44
:104CB0000798B0F57A7F18DDFFE79DED070AB8EE9B
:104CC000C00A9FED361A80EE010A10EE100A01F0BC
:104CD000E1FA41EC100B53EC102B47F24271C0F695
:104CE000000101A8FBF754FB17E00798B0F1FF3F64
:104CF00009DCFFE7079A47F22A71C0F6000101A814
:104D0000FBF746FB08E0079A47F26271C0F6000124
:104D100001A8FBF73DFBFFE7FFE74820EF2101AAD1
:104D2000FFF79AFC0698B0F57A7F18DDFFE79DED56
:104D3000060AB8EEC00A9FED191A80EE010A10EEBD
:104D4000100A01F0A7FA41EC100B53EC102B47F2BC
:104D50005271C0F6000101A8FBF71AFB17E0069894
:104D6000B0F1FF3F09DCFFE7079A47F23671C0F662
:104D7000000101A8FBF70CFB08E0069A47F26E71F0
:104D8000C0F6000101A8FBF703FBFFE7FFE7602087
:104D9000EF2101AAFFF760FC08B080BD00007A4453
:104DA00080B58AB009900891002007900690059080
:104DB0000490039047F27F72C0F600021820BF21D2
:104DC000FFF74AFC9DED090AB8EEC01AB7EE000ADB
:104DD00080EE012A9FED441A22EE012ABDEEC22A7E
:104DE0008DED022A9DED082AB8EEC22A80EE020A55
:104DF00020EE010ABDEEC00A8DED010A0298B0F561
:104E00007A7F18DDFFE79DED020AB8EEC00A9FED3C
:104E1000371A80EE010A10EE100A01F03BFA41EC5D
:104E2000100B53EC102B47F2B861C0F6000103A839
:104E3000FBF7AEFA17E00298B0F1FF3F09DCFFE79D
:104E4000029A47F22A71C0F6000103A8FBF7A0FA04
:104E500008E0029A47F2DC61C0F6000103A8FBF704
:104E600097FAFFE7FFE74820EF2103AAFFF7F4FBDB
:104E70000198B0F57A7F18DDFFE79DED010AB8EEE5
:104E8000C00A9FED1A1A80EE010A10EE100A01F016
:104E900001FA41EC100B53EC102B47F2CA61C0F63B
:104EA000000103A8FBF774FA17E00198B0F1FF3F87
:104EB00009DCFFE7019A47F23671C0F6000103A84A
:104EC000FBF766FA08E0019A47F27461C0F6000148
:104ED00003A8FBF75DFAFFE7FFE76020EF2103AAD5
:104EE000FFF7BAFB0AB080BD0024744900007A4481
:104EF00080B58AB0ADF82600ADF8241008920020E5
:104F00000790069005900490039047F27A72C0F6DD
:104F100000021820BF21FFF79FFBBDF8262047F2B3
:104F2000FA61C0F6000103A80290FBF731FA029A79
:104F30004820EF210191FFF78FFB0298BDF8242054
:104F400047F20A71C0F60001FBF722FA0199029AB2
:104F50006020FFF781FB0298089A47F21A71C0F6A9
:104F60000001FBF715FA0199029A7820FFF774FB0C
:104F70000AB080BD80B58AB0ADF82600ADF8241027
:104F8000ADF82220ADF82030002007900690059063
:104F90000490039047F28472C0F600021820BF21EB
:104FA000FFF75AFBBDF8262047F2EB61C0F600017F
:104FB00003A80290FBF7ECF9029A4820EF21019137
:104FC000FFF74AFB0298BDF8242047F29661C0F62D
:104FD0000001FBF7DDF90199029A6020FFF73CFB25
:104FE0000298BDF8222047F28561C0F60001FBF768
:104FF000CFF90199029A7820FFF72EFB0298BDF8AD
:10500000202047F2A761C0F60001FBF7C1F9019922
:10501000029A9020FFF720FB0AB080BD7047000085
:1050200086B041F20C00C4F20200016801F00301F5
:1050300004910068C1B2012000EB111002900498A5
:105040000090022815D0FFE70098032812D1FFE74F
:10505000029943F20060C0F26E10B0FBF1F041F231
:105060000C01C4F202010968C1F30621484305900E
:1050700011E0FFE7029942F20040C0F2F400B0FBF9
:10508000F1F041F20C01C4F202010968C1F30621FA
:1050900048430590FFE741F20C00C4F202000068AB
:1050A00000F0C061022000EB1160039005980399A5
:1050B000B0FBF1F00190019806B0704780B586B062
:1050C0000020009001210191FFF78EFB4FF47A70D0
:1050D000FCF708FA00990198FFF786FB102041F2CF
:1050E0009071FFF781FB60204FF41C51FFF77CFBB0
:1050F00001996120FFF778FB462002210291FFF71A
:1051000073FB132048F21001FFF76EFB122048F2E8
:10511000FE01FFF769FB02984FF4A061FFF764FB03
:105120000320059041F23001FFF75EFB302040F292
:1051300003310491FFF758FB04993120FFF754FB2A
:1051400004993220FFF750FB33204FF44071039154
:10515000FFF74AFB05993420FFF746FB04993520F9
:10516000FFF742FB36201421FFF73EFB049937205E
:10517000FFF73AFB04993820FFF736FB04993920F2
:10518000FFF732FB03993A20FFF72EFB05993B20EE
:10519000FFF72AFB04993C20FFF726FB3D204FF444
:1051A000A051FFF721FB92204FF40071FFF71CFB89
:1051B00004999320FFF718FB902040F60D01FFF7AC
:1051C00013FB059841F21801FFF70EFB072040F290
:1051D0007311FFF709FB06B080BD000080B58CB0ED
:1051E000E32043F20801FFF7FFFAE72012210191C3
:1051F000FFF7FAFAEF20069041F23121FFF7F4FAB7
:105200000120079000210991FFF7EEFA02204FF4E8
:10521000E061FFF7E9FA03200A9041F23001FFF75D
:10522000E3FA099904200490FFF7DEFA082040F21F
:105230000721FFF7D9FA09990920FFF7D5FA09994B
:105240000A20FFF7D1FA09990C20FFF7CDFA099946
:105250000D20FFF7C9FA09990F200590FFF7C4FA4E
:10526000099910200890FFF7BFFA1120009007213C
:105270000B91FFF7B9FA01980999FFF7B5FA099967
:1052800013200290FFF7B0FAC820FCF7D1FA089873
:1052900041F29061FFF7A8FA009840F22721FFF74A
:1052A000A3FA32200390FCF7C3FA01981D21FFF7FF
:1052B0009BFA0398FCF7BCFA02984FF40061FFF7E1
:1052C00093FA29201421FFF78FFA2B200B21FFF7E7
:1052D0008BFA0398FCF7ACFA09992020FFF784FABF
:1052E00009992120FFF780FA0B993020FFF77CFA0B
:1052F000312040F20771FFF777FA03980621FFF794
:1053000073FA352040F20471FFF76EFA362041F649
:105310000471FFF769FA04993720FFF765FA0999D4
:105320003820FFF761FA392040F20671FFF75CFA86
:105330003C2040F20171FFF757FA05993D20FFF735
:1053400053FA09995020FFF74FFA06995120FFF7B9
:105350004BFA09995220FFF747FA532040F23F11C8
:10536000FFF742FA60204FF41C51FFF73DFA07990E
:105370006120FFF739FA09996A20FFF735FA099990
:105380008020FFF731FA09998120FFF72DFA09995A
:105390008220FFF729FA09998320FFF725FA099956
:1053A0008420FFF721FA09998520FFF71DFA089953
:1053B0009020FFF719FA09999220FFF715FA0A9938
:1053C0009320FFF711FA95204FF48871FFF70CFA3C
:1053D00009999720FFF708FA09999820FFF704FA2E
:1053E0000A9841F21801FFF7FFF90B9840F2731188
:1053F000FFF7FAF90CB080BD7047000080B582B0AD
:10540000009000980138B0F1807F03D3FFE70120BE
:10541000019019E0009801384EF21401CEF200011B
:1054200008604FF0FF300F2100F098FA4EF218019B
:10543000CEF20001002008604EF21002CEF200020F
:10544000072111600190FFE7019802B080BD0000C4
:1054500080B5FCF7DFFB80BD80B594B006A8009056
:105460003821FAF7ABFF00200590049003900290DA
:1054700001904FF40070FCF785FC00980121069123
:105480004FF48031079102210D9103220E920F9269
:1054900014221092119112911391FCF769FF18B127
:1054A000FFE7FCF749F8FFE70F2001900320029087
:1054B000002003900490059001A80221FCF746FD0E
:1054C00018B1FFE7FCF738F8FFE714B080BD000023
:1054D0004EF68851CEF20001086840F47000086072
:1054E0007047000080B540F2D400C2F20000FEF721
:1054F00015F880BD80B540F22010C2F20000FEF722
:105500000DF880BD80B540F26C10C2F20000FEF7CD
:1055100005F880BD83B00290019102980068009068
:10552000029842F60041C4F2010188421DD0FFE713
:105530000298B0F1804F18D0FFE7029840F2004186
:10554000C4F20001884210D0FFE7029840F6000143
:10555000C4F20001884208D0FFE7029843F20041FC
:10556000C4F2010188420AD1FFE7009820F07000E0
:10557000009001984168009808430090FFE7029866
:1055800042F60041C4F20101884235D0FFE702989B
:10559000B0F1804F30D0FFE7029840F20041C4F2F2
:1055A0000001884228D0FFE7029840F60001C4F2CB
:1055B0000001884220D0FFE7029843F20041C4F284
:1055C0000101884218D0FFE7029844F20001C4F2BA
:1055D0000101884210D0FFE7029844F20041C4F272
:1055E0000101884208D0FFE7029844F60001C4F2A6
:1055F000010188420AD1FFE7009820F44070009032
:105600000198C168009808430090FFE7009820F0D7
:105610008000019949690843009000980299086048
:10562000019880680299C8620198006802998862AE
:10563000029842F60041C4F20101884220D0FFE7FF
:10564000029843F20041C4F20101884218D0FFE7FA
:10565000029844F20001C4F20101884210D0FFE731
:10566000029844F20041C4F20101884208D0FFE7E9
:10567000029844F60001C4F20101884205D1FFE717
:105680000198006902990863FFE7029901204861C7
:1056900002980069C00730B1FFE70299086920F05D
:1056A00001000861FFE703B07047000084B0039079
:1056B00002910192029800F01F01012088400090A1
:1056C000009A0399086A904308620198029901F0D0
:1056D0001F0100FA01F20399086A1043086204B03E
:1056E0007047000087B006900591049203930698D6
:1056F000006A01900699086A20F001000862069885
:10570000806902900699012042F60042C4F201022B
:105710009142009030D0FFE706990120B1F1804F0F
:10572000009029D0FFE70699012040F20042C4F220
:105730000002914200901FD0FFE70699012040F639
:105740000002C4F200029142009015D0FFE70699D2
:10575000012043F20042C4F20102914200900BD0BA
:10576000FFE706984CF20001CBF6FE710844B0FA50
:1057700080F040090090FFE70098C00748B1FFE7BC
:10578000029820F0030002900499029808430290C6
:1057900004E0029840F001000290FFE7029820F038
:1057A000F000029003980001C1B2029808430290F1
:1057B000019820F00A000190059800F00A01019874
:1057C0000843019002980699886101980699086239
:1057D00007B0704786B00590049103920293059834
:1057E000006A00900599086A20F010000862059888
:1057F00080690190019820F440700190039901980C
:1058000040EA01200190019820F470400190029834
:10581000000381B2019808430190009820F0A00095
:105820000090049800F00A01009840EA01100090EE
:1058300001980599886100980599086206B070473B
:1058400086B005900491039202930598006A009037
:105850000599086A20F4807008620598C069019073
:10586000019820F0030001900399019808430190EA
:10587000019820F0F000019002980001C1B2019857
:1058800008430190009820F420600090049800F0F4
:105890000A01009840EA0120009001980599C8612A
:1058A00000980599086206B07047000086B0059020
:1058B0000491039202930598006A00900599086A82
:1058C00020F4805008620598C0690190019820F486
:1058D000407001900399019840EA012001900198DD
:1058E00020F4704001900298000381B201980843AF
:1058F0000190009820F420400090049800F00A01E4
:10590000009840EA0130009001980599C86100981C
:105910000599086206B07047FFE7FEE781B08DF891
:1059200003009DF9030000280ED4FFE79DF9031042
:1059300001F01F02012090404A094EF20011CEF200
:10594000000141F82200FFE701B070474EF60C500D
:10595000CEF200000068C0F30220704782B08DF8DC
:10596000070000919DF9070000280AD4FFE700987E
:1059700000019DF907104EF20042CEF20002885459
:105980000BE0009800019DF8071001F00F014EF6A2
:105990001452CEF200028854FFE702B070470000B4
:1059A00083B00290029800F0070000904EF60C5170
:1059B000CEF200010868019001984FF6FF021040F6
:1059C00001900198009A40EA02200022C0F2FA52A7
:1059D000104301900198086003B0704780B586B00D
:1059E000002001900590FCF723F9FFF735FDFFF744
:1059F0002BF8FFF759F8FFF79BF8FFF7DFF8FEF7F2
:105A000037FFFEF71BFDFEF787FA019940F2D4003D
:105A1000C2F200000290FDF705FC019940F220104F
:105A2000C2F200000390FDF7FDFB0298FDF71AFBA0
:105A30000398FDF717FB40F26C10C2F200000490CF
:105A4000FDF736F90498FDF7AFF90120FEF794FF52
:105A5000FFE7FDF707FFFEF781FDFEF7B1FFF8E76F
:105A60005FEA400C08BF91F0000F4FEA8C234FEA29
:105A7000C12243EA51514FEA1C5018BF00F5F040D3
:105A80004FEA300018BF41F000415FEA6C5C00F063
:105A90002980BCF1FF3F08BF40F080407047130CE5
:105AA00006BF12044FF0100C4FF0000C130E04BF91
:105AB00012020CF1080C130F04BF12010CF1040CBC
:105AC000930F04BF92000CF1020CD30F04BF5200DD
:105AD0000CF1010C11464FF00002A0F11F00A0EBE9
